{"abi":[{"type":"function","name":"active","inputs":[{"name":"","type":"address","internalType":"address"},{"name":"","type":"address","internalType":"address"}],"outputs":[{"name":"","type":"bool","internalType":"bool"}],"stateMutability":"view"},{"type":"function","name":"isBAAActive","inputs":[{"name":"coveredEntity","type":"address","internalType":"address"},{"name":"businessAssociate","type":"address","internalType":"address"}],"outputs":[{"name":"","type":"bool","internalType":"bool"}],"stateMutability":"view"},{"type":"function","name":"setActive","inputs":[{"name":"coveredEntity","type":"address","internalType":"address"},{"name":"businessAssociate","type":"address","internalType":"address"},{"name":"isActive","type":"bool","internalType":"bool"}],"outputs":[],"stateMutability":"nonpayable"}],"bytecode":{"object":"0x6080604052348015600e575f5ffd5b506103878061001c5f395ff3fe608060405234801561000f575f5ffd5b506004361061003f575f3560e01c80635e4505c714610043578063d45fd5dc14610073578063d5a168421461008f575b5f5ffd5b61005d60048036038101906100589190610266565b6100bf565b60405161006a91906102be565b60405180910390f35b61008d60048036038101906100889190610301565b6100e8565b005b6100a960048036038101906100a49190610266565b61017b565b6040516100b691906102be565b60405180910390f35b5f602052815f5260405f20602052805f5260405f205f915091509054906101000a900460ff1681565b805f5f8573ffffffffffffffffffffffffffffffffffffffff1673ffffffffffffffffffffffffffffffffffffffff1681526020019081526020015f205f8473ffffffffffffffffffffffffffffffffffffffff1673ffffffffffffffffffffffffffffffffffffffff1681526020019081526020015f205f6101000a81548160ff021916908315150217905550505050565b5f5f5f8473ffffffffffffffffffffffffffffffffffffffff1673ffffffffffffffffffffffffffffffffffffffff1681526020019081526020015f205f8373ffffffffffffffffffffffffffffffffffffffff1673ffffffffffffffffffffffffffffffffffffffff1681526020019081526020015f205f9054906101000a900460ff16905092915050565b5f5ffd5b5f73ffffffffffffffffffffffffffffffffffffffff82169050919050565b5f6102358261020c565b9050919050565b6102458161022b565b811461024f575f5ffd5b50565b5f813590506102608161023c565b92915050565b5f5f6040838503121561027c5761027b610208565b5b5f61028985828601610252565b925050602061029a85828601610252565b9150509250929050565b5f8115159050919050565b6102b8816102a4565b82525050565b5f6020820190506102d15f8301846102af565b92915050565b6102e0816102a4565b81146102ea575f5ffd5b50565b5f813590506102fb816102d7565b92915050565b5f5f5f6060848603121561031857610317610208565b5b5f61032586828701610252565b935050602061033686828701610252565b9250506040610347868287016102ed565b915050925092509256fea2646970667358221220e687c6a0eb566a778afa81ed5467c36938abd3b16ab976110c28f3008d5299f064736f6c634300081c0033","linkReferences":{}},"methodIdentifiers":{"active(address,address)":"5e4505c7","isBAAActive(address,address)":"d5a16842","setActive(address,address,bool)":"d45fd5dc"},"id":0}