{"abi":[{"type":"function","name":"lockedStakeOf","inputs":[{"name":"","type":"address","internalType":"address"}],"outputs":[{"name":"","type":"uint256","internalType":"uint256"}],"stateMutability":"view"},{"type":"function","name":"nextDisputeId","inputs":[],"outputs":[{"name":"","type":"uint256","internalType":"uint256"}],"stateMutability":"view"},{"type":"function","name":"raiseDispute","inputs":[{"name":"agent","type":"address","internalType":"address"},{"name":"amount","type":"uint256","internalType":"uint256"},{"name":"reason","type":"string","internalType":"string"}],"outputs":[{"name":"disputeId","type":"uint256","internalType":"uint256"}],"stateMutability":"nonpayable"},{"type":"function","name":"seedStake","inputs":[{"name":"agent","type":"address","internalType":"address"},{"name":"amount","type":"uint256","internalType":"uint256"}],"outputs":[],"stateMutability":"nonpayable"},{"type":"function","name":"stakeOf","inputs":[{"name":"","type":"address","internalType":"address"}],"outputs":[{"name":"","type":"uint256","internalType":"uint256"}],"stateMutability":"view"},{"type":"event","name":"DisputeRaised","inputs":[{"name":"disputeId","type":"uint256","indexed":true,"internalType":"uint256"},{"name":"agent","type":"address","indexed":true,"internalType":"address"},{"name":"amount","type":"uint256","indexed":false,"internalType":"uint256"},{"name":"reason","type":"string","indexed":false,"internalType":"string"}],"anonymous":false}],"bytecode":{"object":"0x6080604052348015600e575f5ffd5b506107308061001c5f395ff3fe608060405234801561000f575f5ffd5b5060043610610055575f3560e01c80630db39934146100595780632f25434d146100775780634262336014610093578063926da29c146100c3578063c634b093146100f3575b5f5ffd5b610061610123565b60405161006e919061034e565b60405180910390f35b610091600480360381019061008c91906103f3565b610129565b005b6100ad60048036038101906100a89190610431565b61017f565b6040516100ba919061034e565b60405180910390f35b6100dd60048036038101906100d891906104bd565b610193565b6040516100ea919061034e565b60405180910390f35b61010d60048036038101906101089190610431565b610321565b60405161011a919061034e565b60405180910390f35b60025481565b805f5f8473ffffffffffffffffffffffffffffffffffffffff1673ffffffffffffffffffffffffffffffffffffffff1681526020019081526020015f205f828254610174919061055b565b925050819055505050565b5f602052805f5260405f205f915090505481565b5f8360015f8773ffffffffffffffffffffffffffffffffffffffff1673ffffffffffffffffffffffffffffffffffffffff1681526020019081526020015f20545f5f8873ffffffffffffffffffffffffffffffffffffffff1673ffffffffffffffffffffffffffffffffffffffff1681526020019081526020015f205461021a919061058e565b101561025b576040517f08c379a00000000000000000000000000000000000000000000000000000000081526004016102529061061b565b60405180910390fd5b8360015f8773ffffffffffffffffffffffffffffffffffffffff1673ffffffffffffffffffffffffffffffffffffffff1681526020019081526020015f205f8282546102a7919061055b565b9250508190555060025f8154809291906102c090610639565b9190505590508473ffffffffffffffffffffffffffffffffffffffff16817f484989fc2b3d411a833f937aee1d0e0dcdfaaf8d4e2217fde6682c7773ea35a8868686604051610311939291906106ca565b60405180910390a3949350505050565b6001602052805f5260405f205f915090505481565b5f819050919050565b61034881610336565b82525050565b5f6020820190506103615f83018461033f565b92915050565b5f5ffd5b5f5ffd5b5f73ffffffffffffffffffffffffffffffffffffffff82169050919050565b5f6103988261036f565b9050919050565b6103a88161038e565b81146103b2575f5ffd5b50565b5f813590506103c38161039f565b92915050565b6103d281610336565b81146103dc575f5ffd5b50565b5f813590506103ed816103c9565b92915050565b5f5f6040838503121561040957610408610367565b5b5f610416858286016103b5565b9250506020610427858286016103df565b9150509250929050565b5f6020828403121561044657610445610367565b5b5f610453848285016103b5565b91505092915050565b5f5ffd5b5f5ffd5b5f5ffd5b5f5f83601f84011261047d5761047c61045c565b5b8235905067ffffffffffffffff81111561049a57610499610460565b5b6020830191508360018202830111156104b6576104b5610464565b5b9250929050565b5f5f5f5f606085870312156104d5576104d4610367565b5b5f6104e2878288016103b5565b94505060206104f3878288016103df565b935050604085013567ffffffffffffffff8111156105145761051361036b565b5b61052087828801610468565b925092505092959194509250565b7f4e487b71000000000000000000000000000000000000000000000000000000005f52601160045260245ffd5b5f61056582610336565b915061057083610336565b92508282019050808211156105885761058761052e565b5b92915050565b5f61059882610336565b91506105a383610336565b92508282039050818111156105bb576105ba61052e565b5b92915050565b5f82825260208201905092915050565b7f696e73756666696369656e74207374616b6500000000000000000000000000005f82015250565b5f6106056012836105c1565b9150610610826105d1565b602082019050919050565b5f6020820190508181035f830152610632816105f9565b9050919050565b5f61064382610336565b91507fffffffffffffffffffffffffffffffffffffffffffffffffffffffffffffffff82036106755761067461052e565b5b600182019050919050565b828183375f83830152505050565b5f601f19601f8301169050919050565b5f6106a983856105c1565b93506106b6838584610680565b6106bf8361068e565b840190509392505050565b5f6040820190506106dd5f83018661033f565b81810360208301526106f081848661069e565b905094935050505056fea2646970667358221220cadf9415d3fd051bdeefd45965ee585ccd67ac57da6c50b9b20f1501f8ee8fa064736f6c634300081c0033","linkReferences":{}},"methodIdentifiers":{"lockedStakeOf(address)":"c634b093","nextDisputeId()":"0db39934","raiseDispute(address,uint256,string)":"926da29c","seedStake(address,uint256)":"2f25434d","stakeOf(address)":"42623360"},"id":1}