{"abi":[{"type":"function","name":"anchorRoot","inputs":[{"name":"root","type":"bytes32","internalType":"bytes32"}],"outputs":[],"stateMutability":"nonpayable"},{"type":"function","name":"lastRoot","inputs":[],"outputs":[{"name":"","type":"bytes32","internalType":"bytes32"}],"stateMutability":"view"},{"type":"function","name":"rootCount","inputs":[],"outputs":[{"name":"","type":"uint256","internalType":"uint256"}],"stateMutability":"view"},{"type":"event","name":"RootAnchored","inputs":[{"name":"root","type":"bytes32","indexed":true,"internalType":"bytes32"},{"name":"index","type":"uint256","indexed":true,"internalType":"uint256"}],"anonymous":false}],"bytecode":{"object":"0x6080604052348015600e575f5ffd5b506102488061001c5f395ff3fe608060405234801561000f575f5ffd5b506004361061003f575f3560e01c806321111bb414610043578063b58166f214610061578063c50b037b1461007f575b5f5ffd5b61004b61009b565b604051610058919061010f565b60405180910390f35b6100696100a1565b6040516100769190610140565b60405180910390f35b61009960048036038101906100949190610187565b6100a6565b005b60015481565b5f5481565b805f819055506001805f8282546100bd91906101df565b92505081905550600154817f2e8856af32a4e4b53d984c6f9424a615f670a7d22f2b2c8ed435a4ac2ff09b9060405160405180910390a350565b5f819050919050565b610109816100f7565b82525050565b5f6020820190506101225f830184610100565b92915050565b5f819050919050565b61013a81610128565b82525050565b5f6020820190506101535f830184610131565b92915050565b5f5ffd5b61016681610128565b8114610170575f5ffd5b50565b5f813590506101818161015d565b92915050565b5f6020828403121561019c5761019b610159565b5b5f6101a984828501610173565b91505092915050565b7f4e487b71000000000000000000000000000000000000000000000000000000005f52601160045260245ffd5b5f6101e9826100f7565b91506101f4836100f7565b925082820190508082111561020c5761020b6101b2565b5b9291505056fea2646970667358221220d0c2ece1921c7224b8f4f212cec1edc5b3ef60c87b2a8fd1a6b6c3d31b7aac8964736f6c634300081c0033","linkReferences":{}},"methodIdentifiers":{"anchorRoot(bytes32)":"c50b037b","lastRoot()":"b58166f2","rootCount()":"21111bb4"},"id":1}