{"abi":[{"type":"function","name":"baseScoreOf","inputs":[{"name":"","type":"address","internalType":"address"}],"outputs":[{"name":"","type":"uint256","internalType":"uint256"}],"stateMutability":"view"},{"type":"function","name":"lastUpdateOf","inputs":[{"name":"","type":"address","internalType":"address"}],"outputs":[{"name":"","type":"uint256","internalType":"uint256"}],"stateMutability":"view"},{"type":"function","name":"updateScore","inputs":[{"name":"agent","type":"address","internalType":"address"},{"name":"baseScore","type":"uint256","internalType":"uint256"}],"outputs":[],"stateMutability":"nonpayable"},{"type":"event","name":"ScoreUpdated","inputs":[{"name":"agent","type":"address","indexed":true,"internalType":"address"},{"name":"oldBaseScore","type":"uint256","indexed":false,"internalType":"uint256"},{"name":"newBaseScore","type":"uint256","indexed":false,"internalType":"uint256"},{"name":"updatedBy","type":"address","indexed":true,"internalType":"address"}],"anonymous":false}],"bytecode":{"object":"0x6080604052348015600e575f5ffd5b506103968061001c5f395ff3fe608060405234801561000f575f5ffd5b506004361061003f575f3560e01c806336ade0811461004357806365d9772414610073578063e41f94811461008f575b5f5ffd5b61005d60048036038101906100589190610275565b6100bf565b60405161006a91906102b8565b60405180910390f35b61008d600480360381019061008891906102fb565b6100d4565b005b6100a960048036038101906100a49190610275565b610203565b6040516100b691906102b8565b60405180910390f35b6001602052805f5260405f205f915090505481565b5f5f5f8473ffffffffffffffffffffffffffffffffffffffff1673ffffffffffffffffffffffffffffffffffffffff1681526020019081526020015f20549050815f5f8573ffffffffffffffffffffffffffffffffffffffff1673ffffffffffffffffffffffffffffffffffffffff1681526020019081526020015f20819055504260015f8573ffffffffffffffffffffffffffffffffffffffff1673ffffffffffffffffffffffffffffffffffffffff1681526020019081526020015f20819055503373ffffffffffffffffffffffffffffffffffffffff168373ffffffffffffffffffffffffffffffffffffffff167f3816705bc8dd5a867fb8f6bc7235c2198e80c3606e1687d753c47f2e97029e8683856040516101f6929190610339565b60405180910390a3505050565b5f602052805f5260405f205f915090505481565b5f5ffd5b5f73ffffffffffffffffffffffffffffffffffffffff82169050919050565b5f6102448261021b565b9050919050565b6102548161023a565b811461025e575f5ffd5b50565b5f8135905061026f8161024b565b92915050565b5f6020828403121561028a57610289610217565b5b5f61029784828501610261565b91505092915050565b5f819050919050565b6102b2816102a0565b82525050565b5f6020820190506102cb5f8301846102a9565b92915050565b6102da816102a0565b81146102e4575f5ffd5b50565b5f813590506102f5816102d1565b92915050565b5f5f6040838503121561031157610310610217565b5b5f61031e85828601610261565b925050602061032f858286016102e7565b9150509250929050565b5f60408201905061034c5f8301856102a9565b61035960208301846102a9565b939250505056fea2646970667358221220fa374ed72002fe52f3b8bda74699c7d94b4bb2037239b5658ccc7a464682857864736f6c634300081c0033","linkReferences":{}},"methodIdentifiers":{"baseScoreOf(address)":"e41f9481","lastUpdateOf(address)":"36ade081","updateScore(address,uint256)":"65d97724"},"id":0}